{
  "contractName": "ExampleContractInterface",
  "abi": [
    {
      "constant": true,
      "inputs": [
        {
          "name": "_number",
          "type": "uint256"
        }
      ],
      "name": "addNumbers",
      "outputs": [
        {
          "name": "",
          "type": "uint256"
        }
      ],
      "payable": false,
      "stateMutability": "view",
      "type": "function"
    }
  ],
  "bytecode": "0x6060604052341561000f57600080fd5b60ab8061001d6000396000f300606060405260043610603f576000357c0100000000000000000000000000000000000000000000000000000000900463ffffffff1680632be55998146044575b600080fd5b3415604e57600080fd5b606260048080359060200190919050506078565b6040518082815260200191505060405180910390f35b60009190505600a165627a7a72305820afae6923c73dd8fbfb05704086a782fa24b383e85a6e2b4326c56e7821701a870029",
  "source": "pragma solidity 0.4.21;\n\n// a limited definition of the contract we wish to access\ncontract ExampleContractInterface {\n  function addNumbers(uint256 _number)\n    view\n    public\n    returns (uint256)\n    {}\n}\n\n\ncontract ExampleUser {\n\n  // notice that the type here is the contract definition itself\n  ExampleContractInterface private exampleContract;\n  uint256 public addedNumbers;\n\n  // we will set the contract address that we wish to access in our constructor\n  function ExampleUser(address _exampleContractAddress)\n    public\n  {\n    // make sure that the address isn't empty\n    require(_exampleContractAddress != address(0));\n    // set the contract that we want to access by using the definition at the\n    // at the top and use the address provided\n    exampleContract = ExampleContractInterface(_exampleContractAddress);\n  }\n\n  function addNumbers(uint256 _number)\n    public\n    returns (bool)\n  {\n    // access contract function located in other contract\n    addedNumbers = exampleContract.addNumbers(_number);\n    return true;\n  }\n}\n",
  "sourcePath": "/Users/tovarishfin/dev/my-tutorials/interactions/contracts/ExampleUser.sol",
  "compiler": {
    "name": "solc",
    "version": "0.4.21+commit.dfe3193c.Emscripten.clang"
  },
  "schemaVersion": "2.0.0",
  "updatedAt": "2018-04-08T00:46:50.861Z"
}