{
  "contractName": "ExampleUser",
  "abi": [
    {
      "constant": true,
      "inputs": [],
      "name": "addedNumbers",
      "outputs": [
        {
          "name": "",
          "type": "uint256"
        }
      ],
      "payable": false,
      "stateMutability": "view",
      "type": "function"
    },
    {
      "inputs": [
        {
          "name": "_exampleContractAddress",
          "type": "address"
        }
      ],
      "payable": false,
      "stateMutability": "nonpayable",
      "type": "constructor"
    },
    {
      "constant": false,
      "inputs": [
        {
          "name": "_number",
          "type": "uint256"
        }
      ],
      "name": "addNumbers",
      "outputs": [
        {
          "name": "",
          "type": "bool"
        }
      ],
      "payable": false,
      "stateMutability": "nonpayable",
      "type": "function"
    }
  ],
  "bytecode": "0x6060604052341561000f57600080fd5b60405160208061025583398101604052808051906020019091905050600073ffffffffffffffffffffffffffffffffffffffff168173ffffffffffffffffffffffffffffffffffffffff161415151561006757600080fd5b806000806101000a81548173ffffffffffffffffffffffffffffffffffffffff021916908373ffffffffffffffffffffffffffffffffffffffff1602179055505061019e806100b76000396000f30060606040526004361061004c576000357c0100000000000000000000000000000000000000000000000000000000900463ffffffff1680632be559981461005157806361afca051461008c575b600080fd5b341561005c57600080fd5b61007260048080359060200190919050506100b5565b604051808215151515815260200191505060405180910390f35b341561009757600080fd5b61009f61016c565b6040518082815260200191505060405180910390f35b60008060009054906101000a900473ffffffffffffffffffffffffffffffffffffffff1673ffffffffffffffffffffffffffffffffffffffff16632be55998836040518263ffffffff167c010000000000000000000000000000000000000000000000000000000002815260040180828152602001915050602060405180830381600087803b151561014657600080fd5b5af1151561015357600080fd5b5050506040518051905060018190555060019050919050565b600154815600a165627a7a72305820ac6e0f6eb1edd533bb693ae56b591516dc9d914605253a34ea1e6c782201566a0029",
  "source": "pragma solidity 0.4.21;\n\n// a limited definition of the contract we wish to access\ncontract ExampleContractInterface {\n  function addNumbers(uint256 _number)\n    view\n    public\n    returns (uint256)\n    {}\n}\n\n\ncontract ExampleUser {\n\n  // notice that the type here is the contract definition itself\n  ExampleContractInterface private exampleContract;\n  uint256 public addedNumbers;\n\n  // we will set the contract address that we wish to access in our constructor\n  function ExampleUser(address _exampleContractAddress)\n    public\n  {\n    // make sure that the address isn't empty\n    require(_exampleContractAddress != address(0));\n    // set the contract that we want to access by using the definition at the\n    // at the top and use the address provided\n    exampleContract = ExampleContractInterface(_exampleContractAddress);\n  }\n\n  function addNumbers(uint256 _number)\n    public\n    returns (bool)\n  {\n    // access contract function located in other contract\n    addedNumbers = exampleContract.addNumbers(_number);\n    return true;\n  }\n}\n",
  "sourcePath": "/Users/tovarishfin/dev/my-tutorials/interactions/contracts/ExampleUser.sol",
  "compiler": {
    "name": "solc",
    "version": "0.4.21+commit.dfe3193c.Emscripten.clang"
  },
  "schemaVersion": "2.0.0",
  "updatedAt": "2018-04-08T00:46:50.862Z"
}