{
  "contractName": "ExampleContract",
  "abi": [
    {
      "constant": true,
      "inputs": [],
      "name": "someNumber",
      "outputs": [
        {
          "name": "",
          "type": "uint256"
        }
      ],
      "payable": false,
      "stateMutability": "view",
      "type": "function"
    },
    {
      "constant": false,
      "inputs": [
        {
          "name": "_number",
          "type": "uint256"
        }
      ],
      "name": "setNumber",
      "outputs": [
        {
          "name": "",
          "type": "bool"
        }
      ],
      "payable": false,
      "stateMutability": "nonpayable",
      "type": "function"
    },
    {
      "constant": true,
      "inputs": [
        {
          "name": "_number",
          "type": "uint256"
        }
      ],
      "name": "addNumbers",
      "outputs": [
        {
          "name": "",
          "type": "uint256"
        }
      ],
      "payable": false,
      "stateMutability": "view",
      "type": "function"
    }
  ],
  "bytecode": "0x6060604052341561000f57600080fd5b6101458061001e6000396000f300606060405260043610610057576000357c0100000000000000000000000000000000000000000000000000000000900463ffffffff1680632be559981461005c5780633fb5c1cb14610093578063931c9b99146100ce575b600080fd5b341561006757600080fd5b61007d60048080359060200190919050506100f7565b6040518082815260200191505060405180910390f35b341561009e57600080fd5b6100b46004808035906020019091905050610105565b604051808215151515815260200191505060405180910390f35b34156100d957600080fd5b6100e1610113565b6040518082815260200191505060405180910390f35b600081600054019050919050565b600081600081905550919050565b600054815600a165627a7a7230582063354206ec376074bba0728692120e62e68d51c4f43319370d3d8a89f94214dc0029",
  "source": "pragma solidity ^0.4.21;\n\ncontract ExampleContract {\n  uint256 public someNumber;\n\n  function setNumber(uint256 _number)\n    public\n    returns (bool)\n  {\n    someNumber = _number;\n  }\n\n  function addNumbers(uint256 _number)\n    view\n    public\n    returns (uint256)\n  {\n    return someNumber + _number;\n  }\n\n}\n",
  "sourcePath": "/Users/tovarishfin/dev/my-tutorials/interactions/contracts/ExampleContract.sol",
  "compiler": {
    "name": "solc",
    "version": "0.4.21+commit.dfe3193c.Emscripten.clang"
  },
  "schemaVersion": "2.0.0",
  "updatedAt": "2018-04-08T00:32:10.719Z"
}